{
  "contractName": "VolcanoToken",
  "abi": [
    {
      "anonymous": false,
      "inputs": [
        {
          "indexed": true,
          "internalType": "address",
          "name": "owner",
          "type": "address"
        },
        {
          "indexed": true,
          "internalType": "address",
          "name": "approved",
          "type": "address"
        },
        {
          "indexed": true,
          "internalType": "uint256",
          "name": "tokenId",
          "type": "uint256"
        }
      ],
      "name": "Approval",
      "type": "event"
    },
    {
      "anonymous": false,
      "inputs": [
        {
          "indexed": true,
          "internalType": "address",
          "name": "owner",
          "type": "address"
        },
        {
          "indexed": true,
          "internalType": "address",
          "name": "operator",
          "type": "address"
        },
        {
          "indexed": false,
          "internalType": "bool",
          "name": "approved",
          "type": "bool"
        }
      ],
      "name": "ApprovalForAll",
      "type": "event"
    },
    {
      "anonymous": false,
      "inputs": [
        {
          "indexed": true,
          "internalType": "address",
          "name": "previousOwner",
          "type": "address"
        },
        {
          "indexed": true,
          "internalType": "address",
          "name": "newOwner",
          "type": "address"
        }
      ],
      "name": "OwnershipTransferred",
      "type": "event"
    },
    {
      "anonymous": false,
      "inputs": [
        {
          "indexed": true,
          "internalType": "address",
          "name": "from",
          "type": "address"
        },
        {
          "indexed": true,
          "internalType": "address",
          "name": "to",
          "type": "address"
        },
        {
          "indexed": true,
          "internalType": "uint256",
          "name": "tokenId",
          "type": "uint256"
        }
      ],
      "name": "Transfer",
      "type": "event"
    },
    {
      "inputs": [
        {
          "internalType": "address",
          "name": "to",
          "type": "address"
        },
        {
          "internalType": "uint256",
          "name": "tokenId",
          "type": "uint256"
        }
      ],
      "name": "approve",
      "outputs": [],
      "stateMutability": "nonpayable",
      "type": "function"
    },
    {
      "inputs": [
        {
          "internalType": "address",
          "name": "owner",
          "type": "address"
        }
      ],
      "name": "balanceOf",
      "outputs": [
        {
          "internalType": "uint256",
          "name": "",
          "type": "uint256"
        }
      ],
      "stateMutability": "view",
      "type": "function"
    },
    {
      "inputs": [
        {
          "internalType": "uint256",
          "name": "tokenId",
          "type": "uint256"
        }
      ],
      "name": "getApproved",
      "outputs": [
        {
          "internalType": "address",
          "name": "",
          "type": "address"
        }
      ],
      "stateMutability": "view",
      "type": "function"
    },
    {
      "inputs": [
        {
          "internalType": "address",
          "name": "owner",
          "type": "address"
        },
        {
          "internalType": "address",
          "name": "operator",
          "type": "address"
        }
      ],
      "name": "isApprovedForAll",
      "outputs": [
        {
          "internalType": "bool",
          "name": "",
          "type": "bool"
        }
      ],
      "stateMutability": "view",
      "type": "function"
    },
    {
      "inputs": [],
      "name": "name",
      "outputs": [
        {
          "internalType": "string",
          "name": "",
          "type": "string"
        }
      ],
      "stateMutability": "view",
      "type": "function"
    },
    {
      "inputs": [],
      "name": "owner",
      "outputs": [
        {
          "internalType": "address",
          "name": "",
          "type": "address"
        }
      ],
      "stateMutability": "view",
      "type": "function"
    },
    {
      "inputs": [
        {
          "internalType": "uint256",
          "name": "tokenId",
          "type": "uint256"
        }
      ],
      "name": "ownerOf",
      "outputs": [
        {
          "internalType": "address",
          "name": "",
          "type": "address"
        }
      ],
      "stateMutability": "view",
      "type": "function"
    },
    {
      "inputs": [
        {
          "internalType": "address",
          "name": "",
          "type": "address"
        },
        {
          "internalType": "uint256",
          "name": "",
          "type": "uint256"
        }
      ],
      "name": "records",
      "outputs": [
        {
          "internalType": "uint256",
          "name": "id",
          "type": "uint256"
        },
        {
          "internalType": "uint256",
          "name": "timestamp",
          "type": "uint256"
        },
        {
          "internalType": "string",
          "name": "URI",
          "type": "string"
        }
      ],
      "stateMutability": "view",
      "type": "function"
    },
    {
      "inputs": [],
      "name": "renounceOwnership",
      "outputs": [],
      "stateMutability": "nonpayable",
      "type": "function"
    },
    {
      "inputs": [
        {
          "internalType": "address",
          "name": "from",
          "type": "address"
        },
        {
          "internalType": "address",
          "name": "to",
          "type": "address"
        },
        {
          "internalType": "uint256",
          "name": "tokenId",
          "type": "uint256"
        }
      ],
      "name": "safeTransferFrom",
      "outputs": [],
      "stateMutability": "nonpayable",
      "type": "function"
    },
    {
      "inputs": [
        {
          "internalType": "address",
          "name": "from",
          "type": "address"
        },
        {
          "internalType": "address",
          "name": "to",
          "type": "address"
        },
        {
          "internalType": "uint256",
          "name": "tokenId",
          "type": "uint256"
        },
        {
          "internalType": "bytes",
          "name": "_data",
          "type": "bytes"
        }
      ],
      "name": "safeTransferFrom",
      "outputs": [],
      "stateMutability": "nonpayable",
      "type": "function"
    },
    {
      "inputs": [
        {
          "internalType": "address",
          "name": "operator",
          "type": "address"
        },
        {
          "internalType": "bool",
          "name": "approved",
          "type": "bool"
        }
      ],
      "name": "setApprovalForAll",
      "outputs": [],
      "stateMutability": "nonpayable",
      "type": "function"
    },
    {
      "inputs": [
        {
          "internalType": "bytes4",
          "name": "interfaceId",
          "type": "bytes4"
        }
      ],
      "name": "supportsInterface",
      "outputs": [
        {
          "internalType": "bool",
          "name": "",
          "type": "bool"
        }
      ],
      "stateMutability": "view",
      "type": "function"
    },
    {
      "inputs": [],
      "name": "symbol",
      "outputs": [
        {
          "internalType": "string",
          "name": "",
          "type": "string"
        }
      ],
      "stateMutability": "view",
      "type": "function"
    },
    {
      "inputs": [
        {
          "internalType": "uint256",
          "name": "tokenId",
          "type": "uint256"
        }
      ],
      "name": "tokenURI",
      "outputs": [
        {
          "internalType": "string",
          "name": "",
          "type": "string"
        }
      ],
      "stateMutability": "view",
      "type": "function"
    },
    {
      "inputs": [
        {
          "internalType": "address",
          "name": "from",
          "type": "address"
        },
        {
          "internalType": "address",
          "name": "to",
          "type": "address"
        },
        {
          "internalType": "uint256",
          "name": "tokenId",
          "type": "uint256"
        }
      ],
      "name": "transferFrom",
      "outputs": [],
      "stateMutability": "nonpayable",
      "type": "function"
    },
    {
      "inputs": [
        {
          "internalType": "address",
          "name": "newOwner",
          "type": "address"
        }
      ],
      "name": "transferOwnership",
      "outputs": [],
      "stateMutability": "nonpayable",
      "type": "function"
    },
    {
      "inputs": [
        {
          "internalType": "address",
          "name": "_add",
          "type": "address"
        }
      ],
      "name": "getRecords",
      "outputs": [
        {
          "components": [
            {
              "internalType": "uint256",
              "name": "id",
              "type": "uint256"
            },
            {
              "internalType": "uint256",
              "name": "timestamp",
              "type": "uint256"
            },
            {
              "internalType": "string",
              "name": "URI",
              "type": "string"
            }
          ],
          "internalType": "struct VolcanoToken.Metadata[]",
          "name": "",
          "type": "tuple[]"
        }
      ],
      "stateMutability": "view",
      "type": "function"
    },
    {
      "inputs": [],
      "name": "mint",
      "outputs": [],
      "stateMutability": "nonpayable",
      "type": "function"
    },
    {
      "inputs": [
        {
          "internalType": "uint256",
          "name": "_tokenId",
          "type": "uint256"
        }
      ],
      "name": "burn",
      "outputs": [],
      "stateMutability": "nonpayable",
      "type": "function"
    }
  ],
  "bytecode": "0x60806040523480156200001157600080fd5b506040518060400160405280600c81526020017f566f6c63616e6f20436f696e00000000000000000000000000000000000000008152506040518060400160405280600281526020017f56540000000000000000000000000000000000000000000000000000000000008152506200009e62000092620000d860201b60201c565b620000e060201b60201c565b8160019080519060200190620000b6929190620001a4565b508060029080519060200190620000cf929190620001a4565b505050620002b9565b600033905090565b60008060009054906101000a900473ffffffffffffffffffffffffffffffffffffffff169050816000806101000a81548173ffffffffffffffffffffffffffffffffffffffff021916908373ffffffffffffffffffffffffffffffffffffffff1602179055508173ffffffffffffffffffffffffffffffffffffffff168173ffffffffffffffffffffffffffffffffffffffff167f8be0079c531659141344cd1fd0a4f28419497f9722a3daafe3b4186f6b6457e060405160405180910390a35050565b828054620001b29062000254565b90600052602060002090601f016020900481019282620001d6576000855562000222565b82601f10620001f157805160ff191683800117855562000222565b8280016001018555821562000222579182015b828111156200022157825182559160200191906001019062000204565b5b50905062000231919062000235565b5090565b5b808211156200025057600081600090555060010162000236565b5090565b600060028204905060018216806200026d57607f821691505b602082108114156200028457620002836200028a565b5b50919050565b7f4e487b7100000000000000000000000000000000000000000000000000000000600052602260045260246000fd5b6134ff80620002c96000396000f3fe608060405234801561001057600080fd5b506004361061012c5760003560e01c8063715018a6116100ad578063a22cb46511610071578063a22cb46514610331578063b88d4fde1461034d578063c87b56dd14610369578063e985e9c514610399578063f2fde38b146103c95761012c565b8063715018a61461028957806382a6c0ac146102935780638da5cb5b146102c557806395d89b41146102e3578063a0076e84146103015761012c565b806323b872dd116100f457806323b872dd146101d557806342842e0e146101f157806342966c681461020d5780636352211e1461022957806370a08231146102595761012c565b806301ffc9a71461013157806306fdde0314610161578063081812fc1461017f578063095ea7b3146101af5780631249c58b146101cb575b600080fd5b61014b600480360381019061014691906123a6565b6103e5565b6040516101589190612912565b60405180910390f35b6101696104c7565b604051610176919061292d565b60405180910390f35b610199600480360381019061019491906123f8565b610559565b6040516101a69190612889565b60405180910390f35b6101c960048036038101906101c4919061236a565b6105de565b005b6101d36106f6565b005b6101ef60048036038101906101ea9190612264565b610811565b005b61020b60048036038101906102069190612264565b610871565b005b610227600480360381019061022291906123f8565b610891565b005b610243600480360381019061023e91906123f8565b61091c565b6040516102509190612889565b60405180910390f35b610273600480360381019061026e91906121ff565b6109ce565b6040516102809190612b6f565b60405180910390f35b610291610a86565b005b6102ad60048036038101906102a8919061236a565b610b0e565b6040516102bc93929190612b8a565b60405180910390f35b6102cd610bdd565b6040516102da9190612889565b60405180910390f35b6102eb610c06565b6040516102f8919061292d565b60405180910390f35b61031b600480360381019061031691906121ff565b610c98565b60405161032891906128f0565b60405180910390f35b61034b6004803603810190610346919061232e565b610ddc565b005b610367600480360381019061036291906122b3565b610f5d565b005b610383600480360381019061037e91906123f8565b610fbf565b604051610390919061292d565b60405180910390f35b6103b360048036038101906103ae9190612228565b611066565b6040516103c09190612912565b60405180910390f35b6103e360048036038101906103de91906121ff565b6110fa565b005b60007f80ac58cd000000000000000000000000000000000000000000000000000000007bffffffffffffffffffffffffffffffffffffffffffffffffffffffff1916827bffffffffffffffffffffffffffffffffffffffffffffffffffffffff191614806104b057507f5b5e139f000000000000000000000000000000000000000000000000000000007bffffffffffffffffffffffffffffffffffffffffffffffffffffffff1916827bffffffffffffffffffffffffffffffffffffffffffffffffffffffff1916145b806104c057506104bf826111f2565b5b9050919050565b6060600180546104d690612e1c565b80601f016020809104026020016040519081016040528092919081815260200182805461050290612e1c565b801561054f5780601f106105245761010080835404028352916020019161054f565b820191906000526020600020905b81548152906001019060200180831161053257829003601f168201915b5050505050905090565b60006105648261125c565b6105a3576040517f08c379a000000000000000000000000000000000000000000000000000000000815260040161059a90612aaf565b60405180910390fd5b6005600083815260200190815260200160002060009054906101000a900473ffffffffffffffffffffffffffffffffffffffff169050919050565b60006105e98261091c565b90508073ffffffffffffffffffffffffffffffffffffffff168373ffffffffffffffffffffffffffffffffffffffff16141561065a576040517f08c379a000000000000000000000000000000000000000000000000000000000815260040161065190612b2f565b60405180910390fd5b8073ffffffffffffffffffffffffffffffffffffffff166106796112c8565b73ffffffffffffffffffffffffffffffffffffffff1614806106a857506106a7816106a26112c8565b611066565b5b6106e7576040517f08c379a00000000000000000000000000000000000000000000000000000000081526004016106de90612a0f565b60405180910390fd5b6106f183836112d0565b505050565b61070233600754611389565b6000604051806060016040528060075481526020014281526020016040518060400160405280601181526020017f566f6c63616e6f20546f6b656e204e46540000000000000000000000000000008152508152509050600860003373ffffffffffffffffffffffffffffffffffffffff1673ffffffffffffffffffffffffffffffffffffffff168152602001908152602001600020819080600181540180825580915050600190039060005260206000209060030201600090919091909150600082015181600001556020820151816001015560408201518160020190805190602001906107f192919061204b565b5050506001600760008282546108079190612cab565b9250508190555050565b61082261081c6112c8565b826113a7565b610861576040517f08c379a000000000000000000000000000000000000000000000000000000000815260040161085890612b4f565b60405180910390fd5b61086c838383611485565b505050565b61088c83838360405180602001604052806000815250610f5d565b505050565b3373ffffffffffffffffffffffffffffffffffffffff166108b18261091c565b73ffffffffffffffffffffffffffffffffffffffff1614610907576040517f08c379a00000000000000000000000000000000000000000000000000000000081526004016108fe90612a6f565b60405180910390fd5b610910816116e1565b610919816117f2565b50565b6000806003600084815260200190815260200160002060009054906101000a900473ffffffffffffffffffffffffffffffffffffffff169050600073ffffffffffffffffffffffffffffffffffffffff168173ffffffffffffffffffffffffffffffffffffffff1614156109c5576040517f08c379a00000000000000000000000000000000000000000000000000000000081526004016109bc90612a4f565b60405180910390fd5b80915050919050565b60008073ffffffffffffffffffffffffffffffffffffffff168273ffffffffffffffffffffffffffffffffffffffff161415610a3f576040517f08c379a0000000000000000000000000000000000000000000000000000000008152600401610a3690612a2f565b60405180910390fd5b600460008373ffffffffffffffffffffffffffffffffffffffff1673ffffffffffffffffffffffffffffffffffffffff168152602001908152602001600020549050919050565b610a8e6112c8565b73ffffffffffffffffffffffffffffffffffffffff16610aac610bdd565b73ffffffffffffffffffffffffffffffffffffffff1614610b02576040517f08c379a0000000000000000000000000000000000000000000000000000000008152600401610af990612acf565b60405180910390fd5b610b0c600061198f565b565b60086020528160005260406000208181548110610b2a57600080fd5b906000526020600020906003020160009150915050806000015490806001015490806002018054610b5a90612e1c565b80601f0160208091040260200160405190810160405280929190818152602001828054610b8690612e1c565b8015610bd35780601f10610ba857610100808354040283529160200191610bd3565b820191906000526020600020905b815481529060010190602001808311610bb657829003601f168201915b5050505050905083565b60008060009054906101000a900473ffffffffffffffffffffffffffffffffffffffff16905090565b606060028054610c1590612e1c565b80601f0160208091040260200160405190810160405280929190818152602001828054610c4190612e1c565b8015610c8e5780601f10610c6357610100808354040283529160200191610c8e565b820191906000526020600020905b815481529060010190602001808311610c7157829003601f168201915b5050505050905090565b6060600860008373ffffffffffffffffffffffffffffffffffffffff1673ffffffffffffffffffffffffffffffffffffffff168152602001908152602001600020805480602002602001604051908101604052809291908181526020016000905b82821015610dd157838290600052602060002090600302016040518060600160405290816000820154815260200160018201548152602001600282018054610d4090612e1c565b80601f0160208091040260200160405190810160405280929190818152602001828054610d6c90612e1c565b8015610db95780601f10610d8e57610100808354040283529160200191610db9565b820191906000526020600020905b815481529060010190602001808311610d9c57829003601f168201915b50505050508152505081526020019060010190610cf9565b505050509050919050565b610de46112c8565b73ffffffffffffffffffffffffffffffffffffffff168273ffffffffffffffffffffffffffffffffffffffff161415610e52576040517f08c379a0000000000000000000000000000000000000000000000000000000008152600401610e49906129cf565b60405180910390fd5b8060066000610e5f6112c8565b73ffffffffffffffffffffffffffffffffffffffff1673ffffffffffffffffffffffffffffffffffffffff16815260200190815260200160002060008473ffffffffffffffffffffffffffffffffffffffff1673ffffffffffffffffffffffffffffffffffffffff16815260200190815260200160002060006101000a81548160ff0219169083151502179055508173ffffffffffffffffffffffffffffffffffffffff16610f0c6112c8565b73ffffffffffffffffffffffffffffffffffffffff167f17307eab39ab6107e8899845ad3d59bd9653f200f220920489ca2b5937696c3183604051610f519190612912565b60405180910390a35050565b610f6e610f686112c8565b836113a7565b610fad576040517f08c379a0000000000000000000000000000000000000000000000000000000008152600401610fa490612b4f565b60405180910390fd5b610fb984848484611a53565b50505050565b6060610fca8261125c565b611009576040517f08c379a000000000000000000000000000000000000000000000000000000000815260040161100090612b0f565b60405180910390fd5b6000611013611aaf565b90506000815111611033576040518060200160405280600081525061105e565b8061103d84611ac6565b60405160200161104e929190612865565b6040516020818303038152906040525b915050919050565b6000600660008473ffffffffffffffffffffffffffffffffffffffff1673ffffffffffffffffffffffffffffffffffffffff16815260200190815260200160002060008373ffffffffffffffffffffffffffffffffffffffff1673ffffffffffffffffffffffffffffffffffffffff16815260200190815260200160002060009054906101000a900460ff16905092915050565b6111026112c8565b73ffffffffffffffffffffffffffffffffffffffff16611120610bdd565b73ffffffffffffffffffffffffffffffffffffffff1614611176576040517f08c379a000000000000000000000000000000000000000000000000000000000815260040161116d90612acf565b60405180910390fd5b600073ffffffffffffffffffffffffffffffffffffffff168173ffffffffffffffffffffffffffffffffffffffff1614156111e6576040517f08c379a00000000000000000000000000000000000000000000000000000000081526004016111dd9061296f565b60405180910390fd5b6111ef8161198f565b50565b60007f01ffc9a7000000000000000000000000000000000000000000000000000000007bffffffffffffffffffffffffffffffffffffffffffffffffffffffff1916827bffffffffffffffffffffffffffffffffffffffffffffffffffffffff1916149050919050565b60008073ffffffffffffffffffffffffffffffffffffffff166003600084815260200190815260200160002060009054906101000a900473ffffffffffffffffffffffffffffffffffffffff1673ffffffffffffffffffffffffffffffffffffffff1614159050919050565b600033905090565b816005600083815260200190815260200160002060006101000a81548173ffffffffffffffffffffffffffffffffffffffff021916908373ffffffffffffffffffffffffffffffffffffffff160217905550808273ffffffffffffffffffffffffffffffffffffffff166113438361091c565b73ffffffffffffffffffffffffffffffffffffffff167f8c5be1e5ebec7d5bd14f71427d1e84f3dd0314c0f7b2291e5b200ac8c7c3b92560405160405180910390a45050565b6113a3828260405180602001604052806000815250611c73565b5050565b60006113b28261125c565b6113f1576040517f08c379a00000000000000000000000000000000000000000000000000000000081526004016113e8906129ef565b60405180910390fd5b60006113fc8361091c565b90508073ffffffffffffffffffffffffffffffffffffffff168473ffffffffffffffffffffffffffffffffffffffff16148061146b57508373ffffffffffffffffffffffffffffffffffffffff1661145384610559565b73ffffffffffffffffffffffffffffffffffffffff16145b8061147c575061147b8185611066565b5b91505092915050565b8273ffffffffffffffffffffffffffffffffffffffff166114a58261091c565b73ffffffffffffffffffffffffffffffffffffffff16146114fb576040517f08c379a00000000000000000000000000000000000000000000000000000000081526004016114f290612aef565b60405180910390fd5b600073ffffffffffffffffffffffffffffffffffffffff168273ffffffffffffffffffffffffffffffffffffffff16141561156b576040517f08c379a0000000000000000000000000000000000000000000000000000000008152600401611562906129af565b60405180910390fd5b611576838383611cce565b6115816000826112d0565b6001600460008573ffffffffffffffffffffffffffffffffffffffff1673ffffffffffffffffffffffffffffffffffffffff16815260200190815260200160002060008282546115d19190612d32565b925050819055506001600460008473ffffffffffffffffffffffffffffffffffffffff1673ffffffffffffffffffffffffffffffffffffffff16815260200190815260200160002060008282546116289190612cab565b92505081905550816003600083815260200190815260200160002060006101000a81548173ffffffffffffffffffffffffffffffffffffffff021916908373ffffffffffffffffffffffffffffffffffffffff160217905550808273ffffffffffffffffffffffffffffffffffffffff168473ffffffffffffffffffffffffffffffffffffffff167fddf252ad1be2c89b69c2b068fc378daa952ba7f163c4a11628f55a4df523b3ef60405160405180910390a4505050565b60006116ec8261091c565b90506116fa81600084611cce565b6117056000836112d0565b6001600460008373ffffffffffffffffffffffffffffffffffffffff1673ffffffffffffffffffffffffffffffffffffffff16815260200190815260200160002060008282546117559190612d32565b925050819055506003600083815260200190815260200160002060006101000a81549073ffffffffffffffffffffffffffffffffffffffff021916905581600073ffffffffffffffffffffffffffffffffffffffff168273ffffffffffffffffffffffffffffffffffffffff167fddf252ad1be2c89b69c2b068fc378daa952ba7f163c4a11628f55a4df523b3ef60405160405180910390a45050565b60005b600860003373ffffffffffffffffffffffffffffffffffffffff1673ffffffffffffffffffffffffffffffffffffffff1681526020019081526020016000208054905081101561198b5781600860003373ffffffffffffffffffffffffffffffffffffffff1673ffffffffffffffffffffffffffffffffffffffff16815260200190815260200160002082815481106118b7577f4e487b7100000000000000000000000000000000000000000000000000000000600052603260045260246000fd5b906000526020600020906003020160000154141561197857600860003373ffffffffffffffffffffffffffffffffffffffff1673ffffffffffffffffffffffffffffffffffffffff1681526020019081526020016000208181548110611946577f4e487b7100000000000000000000000000000000000000000000000000000000600052603260045260246000fd5b9060005260206000209060030201600080820160009055600182016000905560028201600061197591906120d1565b50505b808061198390612e7f565b9150506117f5565b5050565b60008060009054906101000a900473ffffffffffffffffffffffffffffffffffffffff169050816000806101000a81548173ffffffffffffffffffffffffffffffffffffffff021916908373ffffffffffffffffffffffffffffffffffffffff1602179055508173ffffffffffffffffffffffffffffffffffffffff168173ffffffffffffffffffffffffffffffffffffffff167f8be0079c531659141344cd1fd0a4f28419497f9722a3daafe3b4186f6b6457e060405160405180910390a35050565b611a5e848484611485565b611a6a84848484611cd3565b611aa9576040517f08c379a0000000000000000000000000000000000000000000000000000000008152600401611aa09061294f565b60405180910390fd5b50505050565b606060405180602001604052806000815250905090565b60606000821415611b0e576040518060400160405280600181526020017f30000000000000000000000000000000000000000000000000000000000000008152509050611c6e565b600082905060005b60008214611b40578080611b2990612e7f565b915050600a82611b399190612d01565b9150611b16565b60008167ffffffffffffffff811115611b82577f4e487b7100000000000000000000000000000000000000000000000000000000600052604160045260246000fd5b6040519080825280601f01601f191660200182016040528015611bb45781602001600182028036833780820191505090505b5090505b60008514611c6757600182611bcd9190612d32565b9150600a85611bdc9190612ec8565b6030611be89190612cab565b60f81b818381518110611c24577f4e487b7100000000000000000000000000000000000000000000000000000000600052603260045260246000fd5b60200101907effffffffffffffffffffffffffffffffffffffffffffffffffffffffffffff1916908160001a905350600a85611c609190612d01565b9450611bb8565b8093505050505b919050565b611c7d8383611e6a565b611c8a6000848484611cd3565b611cc9576040517f08c379a0000000000000000000000000000000000000000000000000000000008152600401611cc09061294f565b60405180910390fd5b505050565b505050565b6000611cf48473ffffffffffffffffffffffffffffffffffffffff16612038565b15611e5d578373ffffffffffffffffffffffffffffffffffffffff1663150b7a02611d1d6112c8565b8786866040518563ffffffff1660e01b8152600401611d3f94939291906128a4565b602060405180830381600087803b158015611d5957600080fd5b505af1925050508015611d8a57506040513d601f19601f82011682018060405250810190611d8791906123cf565b60015b611e0d573d8060008114611dba576040519150601f19603f3d011682016040523d82523d6000602084013e611dbf565b606091505b50600081511415611e05576040517f08c379a0000000000000000000000000000000000000000000000000000000008152600401611dfc9061294f565b60405180910390fd5b805181602001fd5b63150b7a0260e01b7bffffffffffffffffffffffffffffffffffffffffffffffffffffffff1916817bffffffffffffffffffffffffffffffffffffffffffffffffffffffff191614915050611e62565b600190505b949350505050565b600073ffffffffffffffffffffffffffffffffffffffff168273ffffffffffffffffffffffffffffffffffffffff161415611eda576040517f08c379a0000000000000000000000000000000000000000000000000000000008152600401611ed190612a8f565b60405180910390fd5b611ee38161125c565b15611f23576040517f08c379a0000000000000000000000000000000000000000000000000000000008152600401611f1a9061298f565b60405180910390fd5b611f2f60008383611cce565b6001600460008473ffffffffffffffffffffffffffffffffffffffff1673ffffffffffffffffffffffffffffffffffffffff1681526020019081526020016000206000828254611f7f9190612cab565b92505081905550816003600083815260200190815260200160002060006101000a81548173ffffffffffffffffffffffffffffffffffffffff021916908373ffffffffffffffffffffffffffffffffffffffff160217905550808273ffffffffffffffffffffffffffffffffffffffff16600073ffffffffffffffffffffffffffffffffffffffff167fddf252ad1be2c89b69c2b068fc378daa952ba7f163c4a11628f55a4df523b3ef60405160405180910390a45050565b600080823b905060008111915050919050565b82805461205790612e1c565b90600052602060002090601f01602090048101928261207957600085556120c0565b82601f1061209257805160ff19168380011785556120c0565b828001600101855582156120c0579182015b828111156120bf5782518255916020019190600101906120a4565b5b5090506120cd9190612111565b5090565b5080546120dd90612e1c565b6000825580601f106120ef575061210e565b601f01602090049060005260206000209081019061210d9190612111565b5b50565b5b8082111561212a576000816000905550600101612112565b5090565b600061214161213c84612bed565b612bc8565b90508281526020810184848401111561215957600080fd5b612164848285612dda565b509392505050565b60008135905061217b8161346d565b92915050565b60008135905061219081613484565b92915050565b6000813590506121a58161349b565b92915050565b6000815190506121ba8161349b565b92915050565b600082601f8301126121d157600080fd5b81356121e184826020860161212e565b91505092915050565b6000813590506121f9816134b2565b92915050565b60006020828403121561221157600080fd5b600061221f8482850161216c565b91505092915050565b6000806040838503121561223b57600080fd5b60006122498582860161216c565b925050602061225a8582860161216c565b9150509250929050565b60008060006060848603121561227957600080fd5b60006122878682870161216c565b93505060206122988682870161216c565b92505060406122a9868287016121ea565b9150509250925092565b600080600080608085870312156122c957600080fd5b60006122d78782880161216c565b94505060206122e88782880161216c565b93505060406122f9878288016121ea565b925050606085013567ffffffffffffffff81111561231657600080fd5b612322878288016121c0565b91505092959194509250565b6000806040838503121561234157600080fd5b600061234f8582860161216c565b925050602061236085828601612181565b9150509250929050565b6000806040838503121561237d57600080fd5b600061238b8582860161216c565b925050602061239c858286016121ea565b9150509250929050565b6000602082840312156123b857600080fd5b60006123c684828501612196565b91505092915050565b6000602082840312156123e157600080fd5b60006123ef848285016121ab565b91505092915050565b60006020828403121561240a57600080fd5b6000612418848285016121ea565b91505092915050565b600061242d83836127f7565b905092915050565b61243e81612d66565b82525050565b600061244f82612c2e565b6124598185612c5c565b93508360208202850161246b85612c1e565b8060005b858110156124a757848403895281516124888582612421565b945061249383612c4f565b925060208a0199505060018101905061246f565b50829750879550505050505092915050565b6124c281612d78565b82525050565b60006124d382612c39565b6124dd8185612c6d565b93506124ed818560208601612de9565b6124f681612fb5565b840191505092915050565b600061250c82612c44565b6125168185612c7e565b9350612526818560208601612de9565b61252f81612fb5565b840191505092915050565b600061254582612c44565b61254f8185612c8f565b935061255f818560208601612de9565b61256881612fb5565b840191505092915050565b600061257e82612c44565b6125888185612ca0565b9350612598818560208601612de9565b80840191505092915050565b60006125b1603283612c8f565b91506125bc82612fc6565b604082019050919050565b60006125d4602683612c8f565b91506125df82613015565b604082019050919050565b60006125f7601c83612c8f565b915061260282613064565b602082019050919050565b600061261a602483612c8f565b91506126258261308d565b604082019050919050565b600061263d601983612c8f565b9150612648826130dc565b602082019050919050565b6000612660602c83612c8f565b915061266b82613105565b604082019050919050565b6000612683603883612c8f565b915061268e82613154565b604082019050919050565b60006126a6602a83612c8f565b91506126b1826131a3565b604082019050919050565b60006126c9602983612c8f565b91506126d4826131f2565b604082019050919050565b60006126ec602d83612c8f565b91506126f782613241565b604082019050919050565b600061270f602083612c8f565b915061271a82613290565b602082019050919050565b6000612732602c83612c8f565b915061273d826132b9565b604082019050919050565b6000612755602083612c8f565b915061276082613308565b602082019050919050565b6000612778602983612c8f565b915061278382613331565b604082019050919050565b600061279b602f83612c8f565b91506127a682613380565b604082019050919050565b60006127be602183612c8f565b91506127c9826133cf565b604082019050919050565b60006127e1603183612c8f565b91506127ec8261341e565b604082019050919050565b600060608301600083015161280f6000860182612847565b5060208301516128226020860182612847565b506040830151848203604086015261283a8282612501565b9150508091505092915050565b61285081612dd0565b82525050565b61285f81612dd0565b82525050565b60006128718285612573565b915061287d8284612573565b91508190509392505050565b600060208201905061289e6000830184612435565b92915050565b60006080820190506128b96000830187612435565b6128c66020830186612435565b6128d36040830185612856565b81810360608301526128e581846124c8565b905095945050505050565b6000602082019050818103600083015261290a8184612444565b905092915050565b600060208201905061292760008301846124b9565b92915050565b60006020820190508181036000830152612947818461253a565b905092915050565b60006020820190508181036000830152612968816125a4565b9050919050565b60006020820190508181036000830152612988816125c7565b9050919050565b600060208201905081810360008301526129a8816125ea565b9050919050565b600060208201905081810360008301526129c88161260d565b9050919050565b600060208201905081810360008301526129e881612630565b9050919050565b60006020820190508181036000830152612a0881612653565b9050919050565b60006020820190508181036000830152612a2881612676565b9050919050565b60006020820190508181036000830152612a4881612699565b9050919050565b60006020820190508181036000830152612a68816126bc565b9050919050565b60006020820190508181036000830152612a88816126df565b9050919050565b60006020820190508181036000830152612aa881612702565b9050919050565b60006020820190508181036000830152612ac881612725565b9050919050565b60006020820190508181036000830152612ae881612748565b9050919050565b60006020820190508181036000830152612b088161276b565b9050919050565b60006020820190508181036000830152612b288161278e565b9050919050565b60006020820190508181036000830152612b48816127b1565b9050919050565b60006020820190508181036000830152612b68816127d4565b9050919050565b6000602082019050612b846000830184612856565b92915050565b6000606082019050612b9f6000830186612856565b612bac6020830185612856565b8181036040830152612bbe818461253a565b9050949350505050565b6000612bd2612be3565b9050612bde8282612e4e565b919050565b6000604051905090565b600067ffffffffffffffff821115612c0857612c07612f86565b5b612c1182612fb5565b9050602081019050919050565b6000819050602082019050919050565b600081519050919050565b600081519050919050565b600081519050919050565b6000602082019050919050565b600082825260208201905092915050565b600082825260208201905092915050565b600082825260208201905092915050565b600082825260208201905092915050565b600081905092915050565b6000612cb682612dd0565b9150612cc183612dd0565b9250827fffffffffffffffffffffffffffffffffffffffffffffffffffffffffffffffff03821115612cf657612cf5612ef9565b5b828201905092915050565b6000612d0c82612dd0565b9150612d1783612dd0565b925082612d2757612d26612f28565b5b828204905092915050565b6000612d3d82612dd0565b9150612d4883612dd0565b925082821015612d5b57612d5a612ef9565b5b828203905092915050565b6000612d7182612db0565b9050919050565b60008115159050919050565b60007fffffffff0000000000000000000000000000000000000000000000000000000082169050919050565b600073ffffffffffffffffffffffffffffffffffffffff82169050919050565b6000819050919050565b82818337600083830152505050565b60005b83811015612e07578082015181840152602081019050612dec565b83811115612e16576000848401525b50505050565b60006002820490506001821680612e3457607f821691505b60208210811415612e4857612e47612f57565b5b50919050565b612e5782612fb5565b810181811067ffffffffffffffff82111715612e7657612e75612f86565b5b80604052505050565b6000612e8a82612dd0565b91507fffffffffffffffffffffffffffffffffffffffffffffffffffffffffffffffff821415612ebd57612ebc612ef9565b5b600182019050919050565b6000612ed382612dd0565b9150612ede83612dd0565b925082612eee57612eed612f28565b5b828206905092915050565b7f4e487b7100000000000000000000000000000000000000000000000000000000600052601160045260246000fd5b7f4e487b7100000000000000000000000000000000000000000000000000000000600052601260045260246000fd5b7f4e487b7100000000000000000000000000000000000000000000000000000000600052602260045260246000fd5b7f4e487b7100000000000000000000000000000000000000000000000000000000600052604160045260246000fd5b6000601f19601f8301169050919050565b7f4552433732313a207472616e7366657220746f206e6f6e20455243373231526560008201527f63656976657220696d706c656d656e7465720000000000000000000000000000602082015250565b7f4f776e61626c653a206e6577206f776e657220697320746865207a65726f206160008201527f6464726573730000000000000000000000000000000000000000000000000000602082015250565b7f4552433732313a20746f6b656e20616c7265616479206d696e74656400000000600082015250565b7f4552433732313a207472616e7366657220746f20746865207a65726f2061646460008201527f7265737300000000000000000000000000000000000000000000000000000000602082015250565b7f4552433732313a20617070726f766520746f2063616c6c657200000000000000600082015250565b7f4552433732313a206f70657261746f7220717565727920666f72206e6f6e657860008201527f697374656e7420746f6b656e0000000000000000000000000000000000000000602082015250565b7f4552433732313a20617070726f76652063616c6c6572206973206e6f74206f7760008201527f6e6572206e6f7220617070726f76656420666f7220616c6c0000000000000000602082015250565b7f4552433732313a2062616c616e636520717565727920666f7220746865207a6560008201527f726f206164647265737300000000000000000000000000000000000000000000602082015250565b7f4552433732313a206f776e657220717565727920666f72206e6f6e657869737460008201527f656e7420746f6b656e0000000000000000000000000000000000000000000000602082015250565b7f596f7520646f206e6f742068617665207065726d697373696f6e20746f20627560008201527f726e207468697320746f6b656e00000000000000000000000000000000000000602082015250565b7f4552433732313a206d696e7420746f20746865207a65726f2061646472657373600082015250565b7f4552433732313a20617070726f76656420717565727920666f72206e6f6e657860008201527f697374656e7420746f6b656e0000000000000000000000000000000000000000602082015250565b7f4f776e61626c653a2063616c6c6572206973206e6f7420746865206f776e6572600082015250565b7f4552433732313a207472616e73666572206f6620746f6b656e2074686174206960008201527f73206e6f74206f776e0000000000000000000000000000000000000000000000602082015250565b7f4552433732314d657461646174613a2055524920717565727920666f72206e6f60008201527f6e6578697374656e7420746f6b656e0000000000000000000000000000000000602082015250565b7f4552433732313a20617070726f76616c20746f2063757272656e74206f776e6560008201527f7200000000000000000000000000000000000000000000000000000000000000602082015250565b7f4552433732313a207472616e736665722063616c6c6572206973206e6f74206f60008201527f776e6572206e6f7220617070726f766564000000000000000000000000000000602082015250565b61347681612d66565b811461348157600080fd5b50565b61348d81612d78565b811461349857600080fd5b50565b6134a481612d84565b81146134af57600080fd5b50565b6134bb81612dd0565b81146134c657600080fd5b5056fea2646970667358221220a8af4c12a59e293703d2bb02833b9c8ed37c4ad58bf6c8b67c2cbc96bb543a7264736f6c63430008040033",
  "immutableReferences": {},
  "source": "// SPDX-License-Identifier: UNLICENSED\r\npragma solidity ^0.8.0;\r\n\r\nimport \"../node_modules/@openzeppelin/contracts/access/Ownable.sol\";\r\nimport \"../node_modules/@openzeppelin/contracts/token/ERC721/ERC721.sol\";\r\n\r\ncontract VolcanoToken is Ownable, ERC721(\"Volcano Coin\", \"VT\") {\r\n    struct Metadata {\r\n        uint id;\r\n        uint timestamp;\r\n        string URI;\r\n    }\r\n\r\n    uint tokenId;\r\n\r\n    mapping(address => Metadata[]) public records;\r\n\r\n    function getRecords(address _add) public view returns(Metadata[] memory) {\r\n        return records[_add];\r\n    }\r\n\r\n    function mint() public {\r\n        _safeMint(msg.sender, tokenId);\r\n        Metadata memory meta = Metadata(tokenId, block.timestamp, \"Volcano Token NFT\");\r\n        records[msg.sender].push(meta);\r\n        tokenId += 1;\r\n    }\r\n\r\n    function burn(uint _tokenId) public {\r\n        require(ownerOf(_tokenId) == msg.sender, \"You do not have permission to burn this token\");\r\n        _burn(_tokenId);\r\n        _removeFromRecords(_tokenId);\r\n    }\r\n\r\n    function _removeFromRecords(uint _tokenId) internal {\r\n        for (uint i = 0; i < records[msg.sender].length; i++) {\r\n            if (records[msg.sender][i].id == _tokenId) {\r\n                delete records[msg.sender][i];\r\n            }\r\n        }\r\n    }\r\n}\r\n",
  "sourcePath": "C:\\Users\\Kai En\\Main\\CS\\Blockchain\\Encode Academy\\TruffleIntro\\contracts\\VolcanoToken.sol",
  "compiler": {
    "name": "solc",
    "version": "0.8.4+commit.c7e474f2.Emscripten.clang"
  },
  "schemaVersion": "3.4.3",
  "updatedAt": "2021-09-08T15:33:15.894Z",
  "devdoc": {
    "kind": "dev",
    "methods": {
      "approve(address,uint256)": {
        "details": "See {IERC721-approve}."
      },
      "balanceOf(address)": {
        "details": "See {IERC721-balanceOf}."
      },
      "getApproved(uint256)": {
        "details": "See {IERC721-getApproved}."
      },
      "isApprovedForAll(address,address)": {
        "details": "See {IERC721-isApprovedForAll}."
      },
      "name()": {
        "details": "See {IERC721Metadata-name}."
      },
      "owner()": {
        "details": "Returns the address of the current owner."
      },
      "ownerOf(uint256)": {
        "details": "See {IERC721-ownerOf}."
      },
      "renounceOwnership()": {
        "details": "Leaves the contract without owner. It will not be possible to call `onlyOwner` functions anymore. Can only be called by the current owner. NOTE: Renouncing ownership will leave the contract without an owner, thereby removing any functionality that is only available to the owner."
      },
      "safeTransferFrom(address,address,uint256)": {
        "details": "See {IERC721-safeTransferFrom}."
      },
      "safeTransferFrom(address,address,uint256,bytes)": {
        "details": "See {IERC721-safeTransferFrom}."
      },
      "setApprovalForAll(address,bool)": {
        "details": "See {IERC721-setApprovalForAll}."
      },
      "supportsInterface(bytes4)": {
        "details": "See {IERC165-supportsInterface}."
      },
      "symbol()": {
        "details": "See {IERC721Metadata-symbol}."
      },
      "tokenURI(uint256)": {
        "details": "See {IERC721Metadata-tokenURI}."
      },
      "transferFrom(address,address,uint256)": {
        "details": "See {IERC721-transferFrom}."
      },
      "transferOwnership(address)": {
        "details": "Transfers ownership of the contract to a new account (`newOwner`). Can only be called by the current owner."
      }
    },
    "version": 1
  },
  "userdoc": {
    "kind": "user",
    "methods": {},
    "version": 1
  }
}