{
  "contractName": "VolcanoCoin",
  "abi": [
    {
      "inputs": [],
      "stateMutability": "nonpayable",
      "type": "constructor"
    },
    {
      "anonymous": false,
      "inputs": [
        {
          "indexed": true,
          "internalType": "address",
          "name": "owner",
          "type": "address"
        },
        {
          "indexed": true,
          "internalType": "address",
          "name": "spender",
          "type": "address"
        },
        {
          "indexed": false,
          "internalType": "uint256",
          "name": "value",
          "type": "uint256"
        }
      ],
      "name": "Approval",
      "type": "event"
    },
    {
      "anonymous": false,
      "inputs": [
        {
          "indexed": true,
          "internalType": "address",
          "name": "previousOwner",
          "type": "address"
        },
        {
          "indexed": true,
          "internalType": "address",
          "name": "newOwner",
          "type": "address"
        }
      ],
      "name": "OwnershipTransferred",
      "type": "event"
    },
    {
      "anonymous": false,
      "inputs": [
        {
          "indexed": true,
          "internalType": "address",
          "name": "from",
          "type": "address"
        },
        {
          "indexed": true,
          "internalType": "address",
          "name": "to",
          "type": "address"
        },
        {
          "indexed": false,
          "internalType": "uint256",
          "name": "value",
          "type": "uint256"
        }
      ],
      "name": "Transfer",
      "type": "event"
    },
    {
      "inputs": [
        {
          "internalType": "address",
          "name": "owner",
          "type": "address"
        },
        {
          "internalType": "address",
          "name": "spender",
          "type": "address"
        }
      ],
      "name": "allowance",
      "outputs": [
        {
          "internalType": "uint256",
          "name": "",
          "type": "uint256"
        }
      ],
      "stateMutability": "view",
      "type": "function"
    },
    {
      "inputs": [
        {
          "internalType": "address",
          "name": "spender",
          "type": "address"
        },
        {
          "internalType": "uint256",
          "name": "amount",
          "type": "uint256"
        }
      ],
      "name": "approve",
      "outputs": [
        {
          "internalType": "bool",
          "name": "",
          "type": "bool"
        }
      ],
      "stateMutability": "nonpayable",
      "type": "function"
    },
    {
      "inputs": [
        {
          "internalType": "address",
          "name": "account",
          "type": "address"
        }
      ],
      "name": "balanceOf",
      "outputs": [
        {
          "internalType": "uint256",
          "name": "",
          "type": "uint256"
        }
      ],
      "stateMutability": "view",
      "type": "function"
    },
    {
      "inputs": [],
      "name": "decimals",
      "outputs": [
        {
          "internalType": "uint8",
          "name": "",
          "type": "uint8"
        }
      ],
      "stateMutability": "view",
      "type": "function"
    },
    {
      "inputs": [
        {
          "internalType": "address",
          "name": "spender",
          "type": "address"
        },
        {
          "internalType": "uint256",
          "name": "subtractedValue",
          "type": "uint256"
        }
      ],
      "name": "decreaseAllowance",
      "outputs": [
        {
          "internalType": "bool",
          "name": "",
          "type": "bool"
        }
      ],
      "stateMutability": "nonpayable",
      "type": "function"
    },
    {
      "inputs": [
        {
          "internalType": "address",
          "name": "spender",
          "type": "address"
        },
        {
          "internalType": "uint256",
          "name": "addedValue",
          "type": "uint256"
        }
      ],
      "name": "increaseAllowance",
      "outputs": [
        {
          "internalType": "bool",
          "name": "",
          "type": "bool"
        }
      ],
      "stateMutability": "nonpayable",
      "type": "function"
    },
    {
      "inputs": [],
      "name": "name",
      "outputs": [
        {
          "internalType": "string",
          "name": "",
          "type": "string"
        }
      ],
      "stateMutability": "view",
      "type": "function"
    },
    {
      "inputs": [],
      "name": "owner",
      "outputs": [
        {
          "internalType": "address",
          "name": "",
          "type": "address"
        }
      ],
      "stateMutability": "view",
      "type": "function"
    },
    {
      "inputs": [],
      "name": "renounceOwnership",
      "outputs": [],
      "stateMutability": "nonpayable",
      "type": "function"
    },
    {
      "inputs": [],
      "name": "symbol",
      "outputs": [
        {
          "internalType": "string",
          "name": "",
          "type": "string"
        }
      ],
      "stateMutability": "view",
      "type": "function"
    },
    {
      "inputs": [],
      "name": "totalSupply",
      "outputs": [
        {
          "internalType": "uint256",
          "name": "",
          "type": "uint256"
        }
      ],
      "stateMutability": "view",
      "type": "function"
    },
    {
      "inputs": [
        {
          "internalType": "address",
          "name": "recipient",
          "type": "address"
        },
        {
          "internalType": "uint256",
          "name": "amount",
          "type": "uint256"
        }
      ],
      "name": "transfer",
      "outputs": [
        {
          "internalType": "bool",
          "name": "",
          "type": "bool"
        }
      ],
      "stateMutability": "nonpayable",
      "type": "function"
    },
    {
      "inputs": [
        {
          "internalType": "address",
          "name": "sender",
          "type": "address"
        },
        {
          "internalType": "address",
          "name": "recipient",
          "type": "address"
        },
        {
          "internalType": "uint256",
          "name": "amount",
          "type": "uint256"
        }
      ],
      "name": "transferFrom",
      "outputs": [
        {
          "internalType": "bool",
          "name": "",
          "type": "bool"
        }
      ],
      "stateMutability": "nonpayable",
      "type": "function"
    },
    {
      "inputs": [
        {
          "internalType": "address",
          "name": "newOwner",
          "type": "address"
        }
      ],
      "name": "transferOwnership",
      "outputs": [],
      "stateMutability": "nonpayable",
      "type": "function"
    },
    {
      "inputs": [],
      "name": "addSupply",
      "outputs": [],
      "stateMutability": "nonpayable",
      "type": "function"
    },
    {
      "inputs": [
        {
          "internalType": "address",
          "name": "add",
          "type": "address"
        }
      ],
      "name": "getRecords",
      "outputs": [
        {
          "components": [
            {
              "internalType": "uint256",
              "name": "amount",
              "type": "uint256"
            },
            {
              "internalType": "address",
              "name": "recipient",
              "type": "address"
            },
            {
              "internalType": "uint256",
              "name": "payment_id",
              "type": "uint256"
            },
            {
              "internalType": "uint256",
              "name": "timestamp",
              "type": "uint256"
            },
            {
              "internalType": "enum VolcanoCoin.PaymentType",
              "name": "payment_type",
              "type": "uint8"
            },
            {
              "internalType": "string",
              "name": "comment",
              "type": "string"
            }
          ],
          "internalType": "struct VolcanoCoin.Payment[]",
          "name": "",
          "type": "tuple[]"
        }
      ],
      "stateMutability": "view",
      "type": "function"
    },
    {
      "inputs": [
        {
          "internalType": "address",
          "name": "sender",
          "type": "address"
        },
        {
          "internalType": "uint256",
          "name": "id",
          "type": "uint256"
        }
      ],
      "name": "getPaymentDetails",
      "outputs": [
        {
          "components": [
            {
              "internalType": "uint256",
              "name": "amount",
              "type": "uint256"
            },
            {
              "internalType": "address",
              "name": "recipient",
              "type": "address"
            },
            {
              "internalType": "uint256",
              "name": "payment_id",
              "type": "uint256"
            },
            {
              "internalType": "uint256",
              "name": "timestamp",
              "type": "uint256"
            },
            {
              "internalType": "enum VolcanoCoin.PaymentType",
              "name": "payment_type",
              "type": "uint8"
            },
            {
              "internalType": "string",
              "name": "comment",
              "type": "string"
            }
          ],
          "internalType": "struct VolcanoCoin.Payment",
          "name": "",
          "type": "tuple"
        },
        {
          "internalType": "int256",
          "name": "",
          "type": "int256"
        }
      ],
      "stateMutability": "view",
      "type": "function"
    },
    {
      "inputs": [
        {
          "internalType": "address",
          "name": "sender",
          "type": "address"
        },
        {
          "internalType": "uint256",
          "name": "id",
          "type": "uint256"
        },
        {
          "internalType": "enum VolcanoCoin.PaymentType",
          "name": "payment_type",
          "type": "uint8"
        },
        {
          "internalType": "string",
          "name": "comment",
          "type": "string"
        }
      ],
      "name": "updatePaymentDetails",
      "outputs": [
        {
          "internalType": "bool",
          "name": "",
          "type": "bool"
        }
      ],
      "stateMutability": "nonpayable",
      "type": "function"
    },
    {
      "inputs": [
        {
          "internalType": "uint256",
          "name": "id",
          "type": "uint256"
        },
        {
          "internalType": "enum VolcanoCoin.PaymentType",
          "name": "payment_type",
          "type": "uint8"
        },
        {
          "internalType": "string",
          "name": "comment",
          "type": "string"
        }
      ],
      "name": "updatePaymentDetails",
      "outputs": [
        {
          "internalType": "bool",
          "name": "",
          "type": "bool"
        }
      ],
      "stateMutability": "nonpayable",
      "type": "function"
    }
  ],
  "bytecode": "0x608060405260006006553480156200001657600080fd5b506040518060400160405280600c81526020017f566f6c63616e6f20436f696e00000000000000000000000000000000000000008152506040518060400160405280600281526020017f5643000000000000000000000000000000000000000000000000000000000000815250620000a3620000976200013260201b60201c565b6200013a60201b60201c565b8160049080519060200190620000bb92919062000577565b508060059080519060200190620000d492919062000577565b505050620000eb33612710620001fe60201b60201c565b33600860006101000a81548173ffffffffffffffffffffffffffffffffffffffff021916908373ffffffffffffffffffffffffffffffffffffffff160217905550620007d3565b600033905090565b60008060009054906101000a900473ffffffffffffffffffffffffffffffffffffffff169050816000806101000a81548173ffffffffffffffffffffffffffffffffffffffff021916908373ffffffffffffffffffffffffffffffffffffffff1602179055508173ffffffffffffffffffffffffffffffffffffffff168173ffffffffffffffffffffffffffffffffffffffff167f8be0079c531659141344cd1fd0a4f28419497f9722a3daafe3b4186f6b6457e060405160405180910390a35050565b600073ffffffffffffffffffffffffffffffffffffffff168273ffffffffffffffffffffffffffffffffffffffff16141562000271576040517f08c379a000000000000000000000000000000000000000000000000000000000815260040162000268906200065f565b60405180910390fd5b62000285600083836200037860201b60201c565b8060036000828254620002999190620006af565b9250508190555080600160008473ffffffffffffffffffffffffffffffffffffffff1673ffffffffffffffffffffffffffffffffffffffff1681526020019081526020016000206000828254620002f19190620006af565b925050819055508173ffffffffffffffffffffffffffffffffffffffff16600073ffffffffffffffffffffffffffffffffffffffff167fddf252ad1be2c89b69c2b068fc378daa952ba7f163c4a11628f55a4df523b3ef8360405162000358919062000681565b60405180910390a362000374600083836200037d60201b60201c565b5050565b505050565b60006040518060c001604052808381526020018473ffffffffffffffffffffffffffffffffffffffff168152602001600654815260200142815260200160006004811115620003f5577f4e487b7100000000000000000000000000000000000000000000000000000000600052602160045260246000fd5b8152602001604051806020016040528060008152508152509050600160066000828254620004249190620006af565b92505081905550600760008573ffffffffffffffffffffffffffffffffffffffff1673ffffffffffffffffffffffffffffffffffffffff1681526020019081526020016000208190806001815401808255809150506001900390600052602060002090600602016000909190919091506000820151816000015560208201518160010160006101000a81548173ffffffffffffffffffffffffffffffffffffffff021916908373ffffffffffffffffffffffffffffffffffffffff160217905550604082015181600201556060820151816003015560808201518160040160006101000a81548160ff021916908360048111156200054b577f4e487b7100000000000000000000000000000000000000000000000000000000600052602160045260246000fd5b021790555060a08201518160050190805190602001906200056e92919062000577565b50505050505050565b828054620005859062000716565b90600052602060002090601f016020900481019282620005a95760008555620005f5565b82601f10620005c457805160ff1916838001178555620005f5565b82800160010185558215620005f5579182015b82811115620005f4578251825591602001919060010190620005d7565b5b50905062000604919062000608565b5090565b5b808211156200062357600081600090555060010162000609565b5090565b600062000636601f836200069e565b91506200064382620007aa565b602082019050919050565b62000659816200070c565b82525050565b600060208201905081810360008301526200067a8162000627565b9050919050565b60006020820190506200069860008301846200064e565b92915050565b600082825260208201905092915050565b6000620006bc826200070c565b9150620006c9836200070c565b9250827fffffffffffffffffffffffffffffffffffffffffffffffffffffffffffffffff038211156200070157620007006200074c565b5b828201905092915050565b6000819050919050565b600060028204905060018216806200072f57607f821691505b602082108114156200074657620007456200077b565b5b50919050565b7f4e487b7100000000000000000000000000000000000000000000000000000000600052601160045260246000fd5b7f4e487b7100000000000000000000000000000000000000000000000000000000600052602260045260246000fd5b7f45524332303a206d696e7420746f20746865207a65726f206164647265737300600082015250565b61326080620007e36000396000f3fe608060405234801561001057600080fd5b50600436106101215760003560e01c80638da5cb5b116100ad578063a9059cbb11610071578063a9059cbb14610347578063c569b08c14610377578063dd62ed3e146103a7578063f2fde38b146103d7578063f82923da146103f357610121565b80638da5cb5b1461027a57806395d89b41146102985780639a1ce735146102b6578063a0076e84146102e7578063a457c2d71461031757610121565b8063313ce567116100f4578063313ce567146101c257806339509351146101e057806370a0823114610210578063715018a61461024057806380f5337a1461024a57610121565b806306fdde0314610126578063095ea7b31461014457806318160ddd1461017457806323b872dd14610192575b600080fd5b61012e6103fd565b60405161013b91906129aa565b60405180910390f35b61015e6004803603810190610159919061237a565b61048f565b60405161016b919061298f565b60405180910390f35b61017c6104ad565b6040516101899190612b5c565b60405180910390f35b6101ac60048036038101906101a7919061232b565b6104b7565b6040516101b9919061298f565b60405180910390f35b6101ca6105af565b6040516101d79190612b77565b60405180910390f35b6101fa60048036038101906101f5919061237a565b6105b8565b604051610207919061298f565b60405180910390f35b61022a600480360381019061022591906122c6565b610664565b6040516102379190612b5c565b60405180910390f35b6102486106ad565b005b610264600480360381019061025f91906123b6565b610735565b604051610271919061298f565b60405180910390f35b610282610998565b60405161028f9190612952565b60405180910390f35b6102a06109c1565b6040516102ad91906129aa565b60405180910390f35b6102d060048036038101906102cb919061237a565b610a53565b6040516102de929190612b2c565b60405180910390f35b61030160048036038101906102fc91906122c6565b610db3565b60405161030e919061296d565b60405180910390f35b610331600480360381019061032c919061237a565b610fde565b60405161033e919061298f565b60405180910390f35b610361600480360381019061035c919061237a565b6110c9565b60405161036e919061298f565b60405180910390f35b610391600480360381019061038c9190612436565b6110e7565b60405161039e919061298f565b60405180910390f35b6103c160048036038101906103bc91906122ef565b611286565b6040516103ce9190612b5c565b60405180910390f35b6103f160048036038101906103ec91906122c6565b61130d565b005b6103fb611405565b005b60606004805461040c90612da3565b80601f016020809104026020016040519081016040528092919081815260200182805461043890612da3565b80156104855780601f1061045a57610100808354040283529160200191610485565b820191906000526020600020905b81548152906001019060200180831161046857829003601f168201915b5050505050905090565b60006104a361049c61149b565b84846114a3565b6001905092915050565b6000600354905090565b60006104c484848461166e565b6000600260008673ffffffffffffffffffffffffffffffffffffffff1673ffffffffffffffffffffffffffffffffffffffff168152602001908152602001600020600061050f61149b565b73ffffffffffffffffffffffffffffffffffffffff1673ffffffffffffffffffffffffffffffffffffffff1681526020019081526020016000205490508281101561058f576040517f08c379a000000000000000000000000000000000000000000000000000000000815260040161058690612a6c565b60405180910390fd5b6105a38561059b61149b565b8584036114a3565b60019150509392505050565b60006012905090565b600061065a6105c561149b565b8484600260006105d361149b565b73ffffffffffffffffffffffffffffffffffffffff1673ffffffffffffffffffffffffffffffffffffffff16815260200190815260200160002060008873ffffffffffffffffffffffffffffffffffffffff1673ffffffffffffffffffffffffffffffffffffffff168152602001908152602001600020546106559190612c03565b6114a3565b6001905092915050565b6000600160008373ffffffffffffffffffffffffffffffffffffffff1673ffffffffffffffffffffffffffffffffffffffff168152602001908152602001600020549050919050565b6106b561149b565b73ffffffffffffffffffffffffffffffffffffffff166106d3610998565b73ffffffffffffffffffffffffffffffffffffffff1614610729576040517f08c379a000000000000000000000000000000000000000000000000000000000815260040161072090612a8c565b60405180910390fd5b61073360006118f2565b565b6000600860009054906101000a900473ffffffffffffffffffffffffffffffffffffffff1673ffffffffffffffffffffffffffffffffffffffff163373ffffffffffffffffffffffffffffffffffffffff161461079157600080fd5b600061079d8787610a53565b91505060008112156107b357600091505061098f565b84600760008973ffffffffffffffffffffffffffffffffffffffff1673ffffffffffffffffffffffffffffffffffffffff168152602001908152602001600020828154811061082b577f4e487b7100000000000000000000000000000000000000000000000000000000600052603260045260246000fd5b906000526020600020906006020160040160006101000a81548160ff02191690836004811115610884577f4e487b7100000000000000000000000000000000000000000000000000000000600052602160045260246000fd5b021790555083836108cc600860009054906101000a900473ffffffffffffffffffffffffffffffffffffffff1673ffffffffffffffffffffffffffffffffffffffff166119b6565b6040516020016108de93929190612921565b604051602081830303815290604052600760008973ffffffffffffffffffffffffffffffffffffffff1673ffffffffffffffffffffffffffffffffffffffff1681526020019081526020016000208281548110610964577f4e487b7100000000000000000000000000000000000000000000000000000000600052603260045260246000fd5b90600052602060002090600602016005019080519060200190610988929190612090565b5060019150505b95945050505050565b60008060009054906101000a900473ffffffffffffffffffffffffffffffffffffffff16905090565b6060600580546109d090612da3565b80601f01602080910402602001604051908101604052809291908181526020018280546109fc90612da3565b8015610a495780601f10610a1e57610100808354040283529160200191610a49565b820191906000526020600020905b815481529060010190602001808311610a2c57829003601f168201915b5050505050905090565b610a5b612116565b600080600090505b600760008673ffffffffffffffffffffffffffffffffffffffff1673ffffffffffffffffffffffffffffffffffffffff16815260200190815260200160002080549050811015610d7b5783600760008773ffffffffffffffffffffffffffffffffffffffff1673ffffffffffffffffffffffffffffffffffffffff1681526020019081526020016000208281548110610b25577f4e487b7100000000000000000000000000000000000000000000000000000000600052603260045260246000fd5b9060005260206000209060060201600201541415610d6857600760008673ffffffffffffffffffffffffffffffffffffffff1673ffffffffffffffffffffffffffffffffffffffff1681526020019081526020016000208181548110610bb4577f4e487b7100000000000000000000000000000000000000000000000000000000600052603260045260246000fd5b906000526020600020906006020181816040518060c0016040529081600082015481526020016001820160009054906101000a900473ffffffffffffffffffffffffffffffffffffffff1673ffffffffffffffffffffffffffffffffffffffff1673ffffffffffffffffffffffffffffffffffffffff16815260200160028201548152602001600382015481526020016004820160009054906101000a900460ff166004811115610c8e577f4e487b7100000000000000000000000000000000000000000000000000000000600052602160045260246000fd5b6004811115610cc6577f4e487b7100000000000000000000000000000000000000000000000000000000600052602160045260246000fd5b8152602001600582018054610cda90612da3565b80601f0160208091040260200160405190810160405280929190818152602001828054610d0690612da3565b8015610d535780601f10610d2857610100808354040283529160200191610d53565b820191906000526020600020905b815481529060010190602001808311610d3657829003601f168201915b50505050508152505091509250925050610dac565b8080610d7390612dd5565b915050610a63565b50610d84612116565b807fffffffffffffffffffffffffffffffffffffffffffffffffffffffffffffffff92509250505b9250929050565b6060600760008373ffffffffffffffffffffffffffffffffffffffff1673ffffffffffffffffffffffffffffffffffffffff168152602001908152602001600020805480602002602001604051908101604052809291908181526020016000905b82821015610fd357838290600052602060002090600602016040518060c0016040529081600082015481526020016001820160009054906101000a900473ffffffffffffffffffffffffffffffffffffffff1673ffffffffffffffffffffffffffffffffffffffff1673ffffffffffffffffffffffffffffffffffffffff16815260200160028201548152602001600382015481526020016004820160009054906101000a900460ff166004811115610ef6577f4e487b7100000000000000000000000000000000000000000000000000000000600052602160045260246000fd5b6004811115610f2e577f4e487b7100000000000000000000000000000000000000000000000000000000600052602160045260246000fd5b8152602001600582018054610f4290612da3565b80601f0160208091040260200160405190810160405280929190818152602001828054610f6e90612da3565b8015610fbb5780601f10610f9057610100808354040283529160200191610fbb565b820191906000526020600020905b815481529060010190602001808311610f9e57829003601f168201915b50505050508152505081526020019060010190610e14565b505050509050919050565b60008060026000610fed61149b565b73ffffffffffffffffffffffffffffffffffffffff1673ffffffffffffffffffffffffffffffffffffffff16815260200190815260200160002060008573ffffffffffffffffffffffffffffffffffffffff1673ffffffffffffffffffffffffffffffffffffffff168152602001908152602001600020549050828110156110aa576040517f08c379a00000000000000000000000000000000000000000000000000000000081526004016110a190612aec565b60405180910390fd5b6110be6110b561149b565b858584036114a3565b600191505092915050565b60006110dd6110d661149b565b848461166e565b6001905092915050565b6000806110f43387610a53565b915050600081121561110a57600091505061127e565b84600760003373ffffffffffffffffffffffffffffffffffffffff1673ffffffffffffffffffffffffffffffffffffffff1681526020019081526020016000208281548110611182577f4e487b7100000000000000000000000000000000000000000000000000000000600052603260045260246000fd5b906000526020600020906006020160040160006101000a81548160ff021916908360048111156111db577f4e487b7100000000000000000000000000000000000000000000000000000000600052602160045260246000fd5b02179055508383600760003373ffffffffffffffffffffffffffffffffffffffff1673ffffffffffffffffffffffffffffffffffffffff1681526020019081526020016000208381548110611259577f4e487b7100000000000000000000000000000000000000000000000000000000600052603260045260246000fd5b9060005260206000209060060201600501919061127792919061219a565b5060019150505b949350505050565b6000600260008473ffffffffffffffffffffffffffffffffffffffff1673ffffffffffffffffffffffffffffffffffffffff16815260200190815260200160002060008373ffffffffffffffffffffffffffffffffffffffff1673ffffffffffffffffffffffffffffffffffffffff16815260200190815260200160002054905092915050565b61131561149b565b73ffffffffffffffffffffffffffffffffffffffff16611333610998565b73ffffffffffffffffffffffffffffffffffffffff1614611389576040517f08c379a000000000000000000000000000000000000000000000000000000000815260040161138090612a8c565b60405180910390fd5b600073ffffffffffffffffffffffffffffffffffffffff168173ffffffffffffffffffffffffffffffffffffffff1614156113f9576040517f08c379a00000000000000000000000000000000000000000000000000000000081526004016113f090612a0c565b60405180910390fd5b611402816118f2565b50565b61140d61149b565b73ffffffffffffffffffffffffffffffffffffffff1661142b610998565b73ffffffffffffffffffffffffffffffffffffffff1614611481576040517f08c379a000000000000000000000000000000000000000000000000000000000815260040161147890612a8c565b60405180910390fd5b61149961148c610998565b6114946104ad565b611a3c565b565b600033905090565b600073ffffffffffffffffffffffffffffffffffffffff168373ffffffffffffffffffffffffffffffffffffffff161415611513576040517f08c379a000000000000000000000000000000000000000000000000000000000815260040161150a90612acc565b60405180910390fd5b600073ffffffffffffffffffffffffffffffffffffffff168273ffffffffffffffffffffffffffffffffffffffff161415611583576040517f08c379a000000000000000000000000000000000000000000000000000000000815260040161157a90612a2c565b60405180910390fd5b80600260008573ffffffffffffffffffffffffffffffffffffffff1673ffffffffffffffffffffffffffffffffffffffff16815260200190815260200160002060008473ffffffffffffffffffffffffffffffffffffffff1673ffffffffffffffffffffffffffffffffffffffff168152602001908152602001600020819055508173ffffffffffffffffffffffffffffffffffffffff168373ffffffffffffffffffffffffffffffffffffffff167f8c5be1e5ebec7d5bd14f71427d1e84f3dd0314c0f7b2291e5b200ac8c7c3b925836040516116619190612b5c565b60405180910390a3505050565b600073ffffffffffffffffffffffffffffffffffffffff168373ffffffffffffffffffffffffffffffffffffffff1614156116de576040517f08c379a00000000000000000000000000000000000000000000000000000000081526004016116d590612aac565b60405180910390fd5b600073ffffffffffffffffffffffffffffffffffffffff168273ffffffffffffffffffffffffffffffffffffffff16141561174e576040517f08c379a0000000000000000000000000000000000000000000000000000000008152600401611745906129ec565b60405180910390fd5b611759838383611b9d565b6000600160008573ffffffffffffffffffffffffffffffffffffffff1673ffffffffffffffffffffffffffffffffffffffff168152602001908152602001600020549050818110156117e0576040517f08c379a00000000000000000000000000000000000000000000000000000000081526004016117d790612a4c565b60405180910390fd5b818103600160008673ffffffffffffffffffffffffffffffffffffffff1673ffffffffffffffffffffffffffffffffffffffff1681526020019081526020016000208190555081600160008573ffffffffffffffffffffffffffffffffffffffff1673ffffffffffffffffffffffffffffffffffffffff16815260200190815260200160002060008282546118759190612c03565b925050819055508273ffffffffffffffffffffffffffffffffffffffff168473ffffffffffffffffffffffffffffffffffffffff167fddf252ad1be2c89b69c2b068fc378daa952ba7f163c4a11628f55a4df523b3ef846040516118d99190612b5c565b60405180910390a36118ec848484611ba2565b50505050565b60008060009054906101000a900473ffffffffffffffffffffffffffffffffffffffff169050816000806101000a81548173ffffffffffffffffffffffffffffffffffffffff021916908373ffffffffffffffffffffffffffffffffffffffff1602179055508173ffffffffffffffffffffffffffffffffffffffff168173ffffffffffffffffffffffffffffffffffffffff167f8be0079c531659141344cd1fd0a4f28419497f9722a3daafe3b4186f6b6457e060405160405180910390a35050565b606060008214156119fe576040518060400160405280600481526020017f30783030000000000000000000000000000000000000000000000000000000008152509050611a37565b600082905060005b60008214611a28578080611a1990612dd5565b915050600882901c9150611a06565b611a328482611d96565b925050505b919050565b600073ffffffffffffffffffffffffffffffffffffffff168273ffffffffffffffffffffffffffffffffffffffff161415611aac576040517f08c379a0000000000000000000000000000000000000000000000000000000008152600401611aa390612b0c565b60405180910390fd5b611ab860008383611b9d565b8060036000828254611aca9190612c03565b9250508190555080600160008473ffffffffffffffffffffffffffffffffffffffff1673ffffffffffffffffffffffffffffffffffffffff1681526020019081526020016000206000828254611b209190612c03565b925050819055508173ffffffffffffffffffffffffffffffffffffffff16600073ffffffffffffffffffffffffffffffffffffffff167fddf252ad1be2c89b69c2b068fc378daa952ba7f163c4a11628f55a4df523b3ef83604051611b859190612b5c565b60405180910390a3611b9960008383611ba2565b5050565b505050565b60006040518060c001604052808381526020018473ffffffffffffffffffffffffffffffffffffffff168152602001600654815260200142815260200160006004811115611c19577f4e487b7100000000000000000000000000000000000000000000000000000000600052602160045260246000fd5b8152602001604051806020016040528060008152508152509050600160066000828254611c469190612c03565b92505081905550600760008573ffffffffffffffffffffffffffffffffffffffff1673ffffffffffffffffffffffffffffffffffffffff1681526020019081526020016000208190806001815401808255809150506001900390600052602060002090600602016000909190919091506000820151816000015560208201518160010160006101000a81548173ffffffffffffffffffffffffffffffffffffffff021916908373ffffffffffffffffffffffffffffffffffffffff160217905550604082015181600201556060820151816003015560808201518160040160006101000a81548160ff02191690836004811115611d6c577f4e487b7100000000000000000000000000000000000000000000000000000000600052602160045260246000fd5b021790555060a0820151816005019080519060200190611d8d929190612090565b50505050505050565b606060006002836002611da99190612c59565b611db39190612c03565b67ffffffffffffffff811115611df2577f4e487b7100000000000000000000000000000000000000000000000000000000600052604160045260246000fd5b6040519080825280601f01601f191660200182016040528015611e245781602001600182028036833780820191505090505b5090507f300000000000000000000000000000000000000000000000000000000000000081600081518110611e82577f4e487b7100000000000000000000000000000000000000000000000000000000600052603260045260246000fd5b60200101907effffffffffffffffffffffffffffffffffffffffffffffffffffffffffffff1916908160001a9053507f780000000000000000000000000000000000000000000000000000000000000081600181518110611f0c577f4e487b7100000000000000000000000000000000000000000000000000000000600052603260045260246000fd5b60200101907effffffffffffffffffffffffffffffffffffffffffffffffffffffffffffff1916908160001a90535060006001846002611f4c9190612c59565b611f569190612c03565b90505b6001811115612042577f3031323334353637383961626364656600000000000000000000000000000000600f861660108110611fbe577f4e487b7100000000000000000000000000000000000000000000000000000000600052603260045260246000fd5b1a60f81b828281518110611ffb577f4e487b7100000000000000000000000000000000000000000000000000000000600052603260045260246000fd5b60200101907effffffffffffffffffffffffffffffffffffffffffffffffffffffffffffff1916908160001a905350600485901c94508061203b90612d79565b9050611f59565b5060008414612086576040517f08c379a000000000000000000000000000000000000000000000000000000000815260040161207d906129cc565b60405180910390fd5b8091505092915050565b82805461209c90612da3565b90600052602060002090601f0160209004810192826120be5760008555612105565b82601f106120d757805160ff1916838001178555612105565b82800160010185558215612105579182015b828111156121045782518255916020019190600101906120e9565b5b5090506121129190612220565b5090565b6040518060c0016040528060008152602001600073ffffffffffffffffffffffffffffffffffffffff16815260200160008152602001600081526020016000600481111561218d577f4e487b7100000000000000000000000000000000000000000000000000000000600052602160045260246000fd5b8152602001606081525090565b8280546121a690612da3565b90600052602060002090601f0160209004810192826121c8576000855561220f565b82601f106121e157803560ff191683800117855561220f565b8280016001018555821561220f579182015b8281111561220e5782358255916020019190600101906121f3565b5b50905061221c9190612220565b5090565b5b80821115612239576000816000905550600101612221565b5090565b60008135905061224c816131ec565b92915050565b60008135905061226181613203565b92915050565b60008083601f84011261227957600080fd5b8235905067ffffffffffffffff81111561229257600080fd5b6020830191508360018202830111156122aa57600080fd5b9250929050565b6000813590506122c081613213565b92915050565b6000602082840312156122d857600080fd5b60006122e68482850161223d565b91505092915050565b6000806040838503121561230257600080fd5b60006123108582860161223d565b92505060206123218582860161223d565b9150509250929050565b60008060006060848603121561234057600080fd5b600061234e8682870161223d565b935050602061235f8682870161223d565b9250506040612370868287016122b1565b9150509250925092565b6000806040838503121561238d57600080fd5b600061239b8582860161223d565b92505060206123ac858286016122b1565b9150509250929050565b6000806000806000608086880312156123ce57600080fd5b60006123dc8882890161223d565b95505060206123ed888289016122b1565b94505060406123fe88828901612252565b935050606086013567ffffffffffffffff81111561241b57600080fd5b61242788828901612267565b92509250509295509295909350565b6000806000806060858703121561244c57600080fd5b600061245a878288016122b1565b945050602061246b87828801612252565b935050604085013567ffffffffffffffff81111561248857600080fd5b61249487828801612267565b925092505092959194509250565b60006124ae83836127e2565b905092915050565b6124bf81612cb3565b82525050565b6124ce81612cb3565b82525050565b60006124df82612ba2565b6124e98185612bc5565b9350836020820285016124fb85612b92565b8060005b85811015612537578484038952815161251885826124a2565b945061252383612bb8565b925060208a019950506001810190506124ff565b50829750879550505050505092915050565b61255281612cc5565b82525050565b61256181612d25565b82525050565b61257081612ce4565b82525050565b60006125828385612bf8565b935061258f838584612d37565b82840190509392505050565b60006125a682612bad565b6125b08185612bd6565b93506125c0818560208601612d46565b6125c981612eab565b840191505092915050565b60006125df82612bad565b6125e98185612be7565b93506125f9818560208601612d46565b61260281612eab565b840191505092915050565b600061261882612bad565b6126228185612bf8565b9350612632818560208601612d46565b80840191505092915050565b600061264b602083612be7565b915061265682612ebc565b602082019050919050565b600061266e602383612be7565b915061267982612ee5565b604082019050919050565b6000612691602683612be7565b915061269c82612f34565b604082019050919050565b60006126b4602283612be7565b91506126bf82612f83565b604082019050919050565b60006126d7602683612be7565b91506126e282612fd2565b604082019050919050565b60006126fa602883612be7565b915061270582613021565b604082019050919050565b600061271d602083612be7565b915061272882613070565b602082019050919050565b6000612740600c83612bf8565b915061274b82613099565b600c82019050919050565b6000612763602583612be7565b915061276e826130c2565b604082019050919050565b6000612786602483612be7565b915061279182613111565b604082019050919050565b60006127a9602583612be7565b91506127b482613160565b604082019050919050565b60006127cc601f83612be7565b91506127d7826131af565b602082019050919050565b600060c0830160008301516127fa60008601826128f4565b50602083015161280d60208601826124b6565b50604083015161282060408601826128f4565b50606083015161283360608601826128f4565b5060808301516128466080860182612558565b5060a083015184820360a086015261285e828261259b565b9150508091505092915050565b600060c08301600083015161288360008601826128f4565b50602083015161289660208601826124b6565b5060408301516128a960408601826128f4565b5060608301516128bc60608601826128f4565b5060808301516128cf6080860182612558565b5060a083015184820360a08601526128e7828261259b565b9150508091505092915050565b6128fd81612d0e565b82525050565b61290c81612d0e565b82525050565b61291b81612d18565b82525050565b600061292e828587612576565b915061293982612733565b9150612945828461260d565b9150819050949350505050565b600060208201905061296760008301846124c5565b92915050565b6000602082019050818103600083015261298781846124d4565b905092915050565b60006020820190506129a46000830184612549565b92915050565b600060208201905081810360008301526129c481846125d4565b905092915050565b600060208201905081810360008301526129e58161263e565b9050919050565b60006020820190508181036000830152612a0581612661565b9050919050565b60006020820190508181036000830152612a2581612684565b9050919050565b60006020820190508181036000830152612a45816126a7565b9050919050565b60006020820190508181036000830152612a65816126ca565b9050919050565b60006020820190508181036000830152612a85816126ed565b9050919050565b60006020820190508181036000830152612aa581612710565b9050919050565b60006020820190508181036000830152612ac581612756565b9050919050565b60006020820190508181036000830152612ae581612779565b9050919050565b60006020820190508181036000830152612b058161279c565b9050919050565b60006020820190508181036000830152612b25816127bf565b9050919050565b60006040820190508181036000830152612b46818561286b565b9050612b556020830184612567565b9392505050565b6000602082019050612b716000830184612903565b92915050565b6000602082019050612b8c6000830184612912565b92915050565b6000819050602082019050919050565b600081519050919050565b600081519050919050565b6000602082019050919050565b600082825260208201905092915050565b600082825260208201905092915050565b600082825260208201905092915050565b600081905092915050565b6000612c0e82612d0e565b9150612c1983612d0e565b9250827fffffffffffffffffffffffffffffffffffffffffffffffffffffffffffffffff03821115612c4e57612c4d612e1e565b5b828201905092915050565b6000612c6482612d0e565b9150612c6f83612d0e565b9250817fffffffffffffffffffffffffffffffffffffffffffffffffffffffffffffffff0483118215151615612ca857612ca7612e1e565b5b828202905092915050565b6000612cbe82612cee565b9050919050565b60008115159050919050565b6000819050612cdf826131d8565b919050565b6000819050919050565b600073ffffffffffffffffffffffffffffffffffffffff82169050919050565b6000819050919050565b600060ff82169050919050565b6000612d3082612cd1565b9050919050565b82818337600083830152505050565b60005b83811015612d64578082015181840152602081019050612d49565b83811115612d73576000848401525b50505050565b6000612d8482612d0e565b91506000821415612d9857612d97612e1e565b5b600182039050919050565b60006002820490506001821680612dbb57607f821691505b60208210811415612dcf57612dce612e7c565b5b50919050565b6000612de082612d0e565b91507fffffffffffffffffffffffffffffffffffffffffffffffffffffffffffffffff821415612e1357612e12612e1e565b5b600182019050919050565b7f4e487b7100000000000000000000000000000000000000000000000000000000600052601160045260246000fd5b7f4e487b7100000000000000000000000000000000000000000000000000000000600052602160045260246000fd5b7f4e487b7100000000000000000000000000000000000000000000000000000000600052602260045260246000fd5b6000601f19601f8301169050919050565b7f537472696e67733a20686578206c656e67746820696e73756666696369656e74600082015250565b7f45524332303a207472616e7366657220746f20746865207a65726f206164647260008201527f6573730000000000000000000000000000000000000000000000000000000000602082015250565b7f4f776e61626c653a206e6577206f776e657220697320746865207a65726f206160008201527f6464726573730000000000000000000000000000000000000000000000000000602082015250565b7f45524332303a20617070726f766520746f20746865207a65726f20616464726560008201527f7373000000000000000000000000000000000000000000000000000000000000602082015250565b7f45524332303a207472616e7366657220616d6f756e742065786365656473206260008201527f616c616e63650000000000000000000000000000000000000000000000000000602082015250565b7f45524332303a207472616e7366657220616d6f756e742065786365656473206160008201527f6c6c6f77616e6365000000000000000000000000000000000000000000000000602082015250565b7f4f776e61626c653a2063616c6c6572206973206e6f7420746865206f776e6572600082015250565b7f2075706461746564206279200000000000000000000000000000000000000000600082015250565b7f45524332303a207472616e736665722066726f6d20746865207a65726f20616460008201527f6472657373000000000000000000000000000000000000000000000000000000602082015250565b7f45524332303a20617070726f76652066726f6d20746865207a65726f2061646460008201527f7265737300000000000000000000000000000000000000000000000000000000602082015250565b7f45524332303a2064656372656173656420616c6c6f77616e63652062656c6f7760008201527f207a65726f000000000000000000000000000000000000000000000000000000602082015250565b7f45524332303a206d696e7420746f20746865207a65726f206164647265737300600082015250565b600581106131e9576131e8612e4d565b5b50565b6131f581612cb3565b811461320057600080fd5b50565b6005811061321057600080fd5b50565b61321c81612d0e565b811461322757600080fd5b5056fea264697066735822122029af7d6cd71a250e54ea80e95f82601fbe76f8f82c3ad4a4bffcd82df0af07d064736f6c63430008040033",
  "immutableReferences": {},
  "source": "// SPDX-License-Identifier: UNLICENSED\r\npragma solidity ^0.8.0;\r\n\r\nimport \"../node_modules/@openzeppelin/contracts/access/Ownable.sol\";\r\nimport \"../node_modules/@openzeppelin/contracts/token/ERC20/ERC20.sol\";\r\nimport \"../node_modules/@openzeppelin/contracts/utils/Strings.sol\";\r\n\r\ncontract VolcanoCoin is Ownable, ERC20(\"Volcano Coin\", \"VC\") {\r\n    enum PaymentType { Unknown, Basic, Refund, Dividend, GroupPayment }\r\n    struct Payment {\r\n        uint256 amount;\r\n        address recipient;\r\n\r\n        uint256 payment_id;\r\n        uint256 timestamp;\r\n        PaymentType payment_type;\r\n        string comment;\r\n    }\r\n    uint256 private n_payments = 0;\r\n    mapping(address => Payment[]) records;\r\n    address private administrator;\r\n\r\n    constructor() {\r\n        _mint(msg.sender, 10000);\r\n        administrator = msg.sender;\r\n    }\r\n\r\n    /*\r\n    modifier PaymentExists(address add, uint id)  {\r\n        for (uint i = 0; i < records[add].length; i++) {\r\n            if (records[sender][i].payment_id == id) {\r\n                _;\r\n            }\r\n        }\r\n    }\r\n    */\r\n\r\n    modifier onlyAdmin {\r\n        require(msg.sender == administrator);\r\n        _;\r\n    }\r\n\r\n    function addSupply() public onlyOwner() {\r\n        _mint(owner(), totalSupply());\r\n    }\r\n\r\n    function getRecords(address add) public view returns(Payment[] memory) {\r\n        return records[add];\r\n    }\r\n\r\n    function _afterTokenTransfer(address sender, address recipient, uint amount) internal override{\r\n        Payment memory new_payment = Payment({\r\n            amount: amount,\r\n            recipient: recipient,\r\n            timestamp: block.timestamp,\r\n            payment_id: n_payments,\r\n            payment_type: PaymentType.Unknown,\r\n            comment: \"\"\r\n        });\r\n        n_payments += 1; // When testing out my code, the ID started from 1 rather than 0, I'm not too sure why\r\n        records[sender].push(new_payment);\r\n    }\r\n\r\n\r\n    function getPaymentDetails(address sender, uint id) public view returns(Payment memory, int256) {\r\n        for (uint i = 0; i < records[sender].length; i++) {\r\n            if (records[sender][i].payment_id == id) {\r\n                return (records[sender][i], int(i));\r\n            }\r\n        }\r\n        Payment memory emptyPayment;\r\n        return (emptyPayment, -1);\r\n    }\r\n\r\n    function updatePaymentDetails(uint id, PaymentType payment_type, string calldata comment) public returns(bool) {\r\n        (, int256 i) = getPaymentDetails(msg.sender, id);\r\n        if (i < 0) {\r\n            return false;\r\n        } else {\r\n            records[msg.sender][uint(i)].payment_type = payment_type;\r\n            records[msg.sender][uint(i)].comment = comment;\r\n            return true;\r\n        }\r\n\r\n    }\r\n\r\n    function updatePaymentDetails(address sender, uint id, PaymentType payment_type, string calldata comment) public onlyAdmin returns(bool) {\r\n        (, int256 i) = getPaymentDetails(sender, id);\r\n        if (i < 0) {\r\n            return false;\r\n        } else {\r\n            records[sender][uint(i)].payment_type = payment_type;\r\n            records[sender][uint(i)].comment = string(abi.encodePacked(comment,\" updated by \",Strings.toHexString(uint256(uint160(administrator)))));\r\n            return true;\r\n        }\r\n    }\r\n\r\n\r\n}\r\n",
  "sourcePath": "C:\\Users\\Kai En\\Main\\CS\\Blockchain\\Encode Academy\\TruffleIntro\\contracts\\VolcanoCoin.sol",
  "compiler": {
    "name": "solc",
    "version": "0.8.4+commit.c7e474f2.Emscripten.clang"
  },
  "schemaVersion": "3.4.3",
  "updatedAt": "2021-09-08T15:33:15.870Z",
  "devdoc": {
    "kind": "dev",
    "methods": {
      "allowance(address,address)": {
        "details": "See {IERC20-allowance}."
      },
      "approve(address,uint256)": {
        "details": "See {IERC20-approve}. Requirements: - `spender` cannot be the zero address."
      },
      "balanceOf(address)": {
        "details": "See {IERC20-balanceOf}."
      },
      "decimals()": {
        "details": "Returns the number of decimals used to get its user representation. For example, if `decimals` equals `2`, a balance of `505` tokens should be displayed to a user as `5.05` (`505 / 10 ** 2`). Tokens usually opt for a value of 18, imitating the relationship between Ether and Wei. This is the value {ERC20} uses, unless this function is overridden; NOTE: This information is only used for _display_ purposes: it in no way affects any of the arithmetic of the contract, including {IERC20-balanceOf} and {IERC20-transfer}."
      },
      "decreaseAllowance(address,uint256)": {
        "details": "Atomically decreases the allowance granted to `spender` by the caller. This is an alternative to {approve} that can be used as a mitigation for problems described in {IERC20-approve}. Emits an {Approval} event indicating the updated allowance. Requirements: - `spender` cannot be the zero address. - `spender` must have allowance for the caller of at least `subtractedValue`."
      },
      "increaseAllowance(address,uint256)": {
        "details": "Atomically increases the allowance granted to `spender` by the caller. This is an alternative to {approve} that can be used as a mitigation for problems described in {IERC20-approve}. Emits an {Approval} event indicating the updated allowance. Requirements: - `spender` cannot be the zero address."
      },
      "name()": {
        "details": "Returns the name of the token."
      },
      "owner()": {
        "details": "Returns the address of the current owner."
      },
      "renounceOwnership()": {
        "details": "Leaves the contract without owner. It will not be possible to call `onlyOwner` functions anymore. Can only be called by the current owner. NOTE: Renouncing ownership will leave the contract without an owner, thereby removing any functionality that is only available to the owner."
      },
      "symbol()": {
        "details": "Returns the symbol of the token, usually a shorter version of the name."
      },
      "totalSupply()": {
        "details": "See {IERC20-totalSupply}."
      },
      "transfer(address,uint256)": {
        "details": "See {IERC20-transfer}. Requirements: - `recipient` cannot be the zero address. - the caller must have a balance of at least `amount`."
      },
      "transferFrom(address,address,uint256)": {
        "details": "See {IERC20-transferFrom}. Emits an {Approval} event indicating the updated allowance. This is not required by the EIP. See the note at the beginning of {ERC20}. Requirements: - `sender` and `recipient` cannot be the zero address. - `sender` must have a balance of at least `amount`. - the caller must have allowance for ``sender``'s tokens of at least `amount`."
      },
      "transferOwnership(address)": {
        "details": "Transfers ownership of the contract to a new account (`newOwner`). Can only be called by the current owner."
      }
    },
    "version": 1
  },
  "userdoc": {
    "kind": "user",
    "methods": {},
    "version": 1
  }
}